{
  "contractName": "MediatorInterface",
  "abi": [
    {
      "inputs": [],
      "name": "getAddr",
      "outputs": [
        {
          "internalType": "address",
          "name": "",
          "type": "address"
        }
      ],
      "stateMutability": "view",
      "type": "function"
    },
    {
      "inputs": [
        {
          "internalType": "address",
          "name": "_prov",
          "type": "address"
        },
        {
          "internalType": "address",
          "name": "_sub",
          "type": "address"
        },
        {
          "internalType": "uint256",
          "name": "_amount",
          "type": "uint256"
        }
      ],
      "name": "addSubsToProv",
      "outputs": [],
      "stateMutability": "nonpayable",
      "type": "function"
    },
    {
      "inputs": [
        {
          "internalType": "address",
          "name": "_prov",
          "type": "address"
        },
        {
          "internalType": "address",
          "name": "_sub",
          "type": "address"
        }
      ],
      "name": "enableCharging",
      "outputs": [],
      "stateMutability": "nonpayable",
      "type": "function"
    },
    {
      "inputs": [
        {
          "internalType": "address",
          "name": "_prov",
          "type": "address"
        },
        {
          "internalType": "address",
          "name": "_sub",
          "type": "address"
        }
      ],
      "name": "disableCharging",
      "outputs": [],
      "stateMutability": "nonpayable",
      "type": "function"
    },
    {
      "inputs": [
        {
          "internalType": "address payable",
          "name": "_sub",
          "type": "address"
        },
        {
          "internalType": "uint256",
          "name": "_amount",
          "type": "uint256"
        }
      ],
      "name": "providerPullFromMed",
      "outputs": [],
      "stateMutability": "nonpayable",
      "type": "function"
    },
    {
      "inputs": [
        {
          "internalType": "address",
          "name": "_prov",
          "type": "address"
        },
        {
          "internalType": "address payable",
          "name": "_sub",
          "type": "address"
        },
        {
          "internalType": "uint256",
          "name": "amount",
          "type": "uint256"
        }
      ],
      "name": "medPullFromSub",
      "outputs": [],
      "stateMutability": "nonpayable",
      "type": "function"
    },
    {
      "inputs": [
        {
          "internalType": "address",
          "name": "_prov",
          "type": "address"
        }
      ],
      "name": "subPullFromMed",
      "outputs": [],
      "stateMutability": "nonpayable",
      "type": "function"
    }
  ],
  "bytecode": "0x608060405234801561001057600080fd5b50610356806100206000396000f3fe608060405234801561001057600080fd5b506004361061007d5760003560e01c80636ac281421161005b5780636ac28142146101985780639245f374146101e6578063a74c2bb614610254578063be92b2cf1461029e5761007d565b80631534f83714610082578063325e1afe146100f05780633f120baf14610154575b600080fd5b6100ee6004803603606081101561009857600080fd5b81019080803573ffffffffffffffffffffffffffffffffffffffff169060200190929190803573ffffffffffffffffffffffffffffffffffffffff16906020019092919080359060200190929190505050610302565b005b6101526004803603604081101561010657600080fd5b81019080803573ffffffffffffffffffffffffffffffffffffffff169060200190929190803573ffffffffffffffffffffffffffffffffffffffff169060200190929190505050610307565b005b6101966004803603602081101561016a57600080fd5b81019080803573ffffffffffffffffffffffffffffffffffffffff16906020019092919050505061030b565b005b6101e4600480360360408110156101ae57600080fd5b81019080803573ffffffffffffffffffffffffffffffffffffffff1690602001909291908035906020019092919050505061030e565b005b610252600480360360608110156101fc57600080fd5b81019080803573ffffffffffffffffffffffffffffffffffffffff169060200190929190803573ffffffffffffffffffffffffffffffffffffffff16906020019092919080359060200190929190505050610312565b005b61025c610317565b604051808273ffffffffffffffffffffffffffffffffffffffff1673ffffffffffffffffffffffffffffffffffffffff16815260200191505060405180910390f35b610300600480360360408110156102b457600080fd5b81019080803573ffffffffffffffffffffffffffffffffffffffff169060200190929190803573ffffffffffffffffffffffffffffffffffffffff16906020019092919050505061031c565b005b505050565b5050565b50565b5050565b505050565b600090565b505056fea26469706673582212202af24a569a9f5df56dd45dc1ebdce4c9cdf3407c583a8d963ef5fc7f93adc41864736f6c63430006000033",
  "source": "pragma solidity >=0.6.0 <0.9.0;\r\n\r\nimport \"./DDToken.sol\";\r\nimport \"./Subscriber.sol\";\r\n\r\ncontract MediatorInterface {\r\n    /* GETTERS, SETTERS */\r\n    function getAddr() public view virtual returns (address) {}\r\n\r\n    function addSubsToProv(\r\n        address _prov,\r\n        address _sub,\r\n        uint256 _amount\r\n    ) public virtual {}\r\n\r\n    function enableCharging(address _prov, address _sub) public virtual {}\r\n\r\n    function disableCharging(address _prov, address _sub) public virtual {}\r\n\r\n    function providerPullFromMed(address payable _sub, uint256 _amount)\r\n        public\r\n        virtual\r\n    {}\r\n\r\n    function medPullFromSub(\r\n        address _prov,\r\n        address payable _sub,\r\n        uint256 amount\r\n    ) public virtual {}\r\n\r\n    function subPullFromMed(address _prov) public virtual {}\r\n}\r\n",
  "sourcePath": "D:\\Master_MIRI\\Work\\e2e\\contracts\\MediatorInterface.sol",
  "compiler": {
    "name": "solc",
    "version": "0.6.0+commit.26b70077.Emscripten.clang"
  },
  "schemaVersion": "3.3.4",
  "updatedAt": "2021-03-17T08:25:25.731Z",
  "devdoc": {
    "methods": {}
  },
  "userdoc": {
    "methods": {}
  }
}