{
  "contractName": "Mediator",
  "abi": [
    {
      "inputs": [],
      "stateMutability": "nonpayable",
      "type": "constructor"
    },
    {
      "anonymous": false,
      "inputs": [],
      "name": "breakPoint",
      "type": "event"
    },
    {
      "inputs": [],
      "name": "owner",
      "outputs": [
        {
          "internalType": "address",
          "name": "",
          "type": "address"
        }
      ],
      "stateMutability": "view",
      "type": "function",
      "constant": true
    },
    {
      "inputs": [],
      "name": "tok",
      "outputs": [
        {
          "internalType": "contract DDToken",
          "name": "",
          "type": "address"
        }
      ],
      "stateMutability": "view",
      "type": "function",
      "constant": true
    },
    {
      "stateMutability": "payable",
      "type": "receive",
      "payable": true
    },
    {
      "inputs": [],
      "name": "getAddr",
      "outputs": [
        {
          "internalType": "address",
          "name": "",
          "type": "address"
        }
      ],
      "stateMutability": "view",
      "type": "function",
      "constant": true
    },
    {
      "inputs": [
        {
          "internalType": "address",
          "name": "_tokAddress",
          "type": "address"
        }
      ],
      "name": "setToken",
      "outputs": [],
      "stateMutability": "nonpayable",
      "type": "function"
    },
    {
      "inputs": [
        {
          "internalType": "address",
          "name": "_prov",
          "type": "address"
        },
        {
          "internalType": "address",
          "name": "_sub",
          "type": "address"
        },
        {
          "internalType": "uint256",
          "name": "_amount",
          "type": "uint256"
        }
      ],
      "name": "addSubsToProv",
      "outputs": [],
      "stateMutability": "nonpayable",
      "type": "function"
    },
    {
      "inputs": [
        {
          "internalType": "address",
          "name": "_prov",
          "type": "address"
        },
        {
          "internalType": "address",
          "name": "_sub",
          "type": "address"
        }
      ],
      "name": "enableCharging",
      "outputs": [],
      "stateMutability": "nonpayable",
      "type": "function"
    },
    {
      "inputs": [
        {
          "internalType": "address",
          "name": "_prov",
          "type": "address"
        },
        {
          "internalType": "address",
          "name": "_sub",
          "type": "address"
        }
      ],
      "name": "disableCharging",
      "outputs": [],
      "stateMutability": "nonpayable",
      "type": "function"
    },
    {
      "inputs": [
        {
          "internalType": "address payable",
          "name": "_sub",
          "type": "address"
        }
      ],
      "name": "providerPullFromMed",
      "outputs": [],
      "stateMutability": "nonpayable",
      "type": "function"
    },
    {
      "inputs": [
        {
          "internalType": "address",
          "name": "_prov",
          "type": "address"
        },
        {
          "internalType": "address payable",
          "name": "_sub",
          "type": "address"
        },
        {
          "internalType": "uint256",
          "name": "_amount",
          "type": "uint256"
        }
      ],
      "name": "medPullFromSub",
      "outputs": [],
      "stateMutability": "nonpayable",
      "type": "function"
    }
  ],
  "bytecode": "0x608060405234801561001057600080fd5b50336000806101000a81548173ffffffffffffffffffffffffffffffffffffffff021916908373ffffffffffffffffffffffffffffffffffffffff160217905550610e36806100606000396000f3fe60806040526004361061008a5760003560e01c80638da5cb5b116100595780638da5cb5b1461022a5780639245f37414610281578063a74c2bb6146102fc578063be92b2cf14610353578063f859c6e9146103c457610091565b8063144fa6d7146100965780631534f837146100e7578063325e1afe146101625780634ab74a1e146101d357610091565b3661009157005b600080fd5b3480156100a257600080fd5b506100e5600480360360208110156100b957600080fd5b81019080803573ffffffffffffffffffffffffffffffffffffffff169060200190929190505050610415565b005b3480156100f357600080fd5b506101606004803603606081101561010a57600080fd5b81019080803573ffffffffffffffffffffffffffffffffffffffff169060200190929190803573ffffffffffffffffffffffffffffffffffffffff16906020019092919080359060200190929190505050610459565b005b34801561016e57600080fd5b506101d16004803603604081101561018557600080fd5b81019080803573ffffffffffffffffffffffffffffffffffffffff169060200190929190803573ffffffffffffffffffffffffffffffffffffffff169060200190929190505050610733565b005b3480156101df57600080fd5b506101e86107d1565b604051808273ffffffffffffffffffffffffffffffffffffffff1673ffffffffffffffffffffffffffffffffffffffff16815260200191505060405180910390f35b34801561023657600080fd5b5061023f6107f7565b604051808273ffffffffffffffffffffffffffffffffffffffff1673ffffffffffffffffffffffffffffffffffffffff16815260200191505060405180910390f35b34801561028d57600080fd5b506102fa600480360360608110156102a457600080fd5b81019080803573ffffffffffffffffffffffffffffffffffffffff169060200190929190803573ffffffffffffffffffffffffffffffffffffffff1690602001909291908035906020019092919050505061081c565b005b34801561030857600080fd5b506103116108c6565b604051808273ffffffffffffffffffffffffffffffffffffffff1673ffffffffffffffffffffffffffffffffffffffff16815260200191505060405180910390f35b34801561035f57600080fd5b506103c26004803603604081101561037657600080fd5b81019080803573ffffffffffffffffffffffffffffffffffffffff169060200190929190803573ffffffffffffffffffffffffffffffffffffffff1690602001909291905050506108d3565b005b3480156103d057600080fd5b50610413600480360360208110156103e757600080fd5b81019080803573ffffffffffffffffffffffffffffffffffffffff169060200190929190505050610972565b005b80600260006101000a81548173ffffffffffffffffffffffffffffffffffffffff021916908373ffffffffffffffffffffffffffffffffffffffff16021790555050565b60011515600160008573ffffffffffffffffffffffffffffffffffffffff1673ffffffffffffffffffffffffffffffffffffffff16815260200190815260200160002060000160008473ffffffffffffffffffffffffffffffffffffffff1673ffffffffffffffffffffffffffffffffffffffff16815260200190815260200160002060000160009054906101000a900460ff1615151415610546576040517f08c379a0000000000000000000000000000000000000000000000000000000008152600401808060200182810382526047815260200180610dba6047913960600191505060405180910390fd5b60018060008573ffffffffffffffffffffffffffffffffffffffff1673ffffffffffffffffffffffffffffffffffffffff16815260200190815260200160002060000160008473ffffffffffffffffffffffffffffffffffffffff1673ffffffffffffffffffffffffffffffffffffffff16815260200190815260200160002060000160006101000a81548160ff0219169083151502179055506000600160008573ffffffffffffffffffffffffffffffffffffffff1673ffffffffffffffffffffffffffffffffffffffff16815260200190815260200160002060000160008473ffffffffffffffffffffffffffffffffffffffff1673ffffffffffffffffffffffffffffffffffffffff16815260200190815260200160002060000160016101000a81548160ff02191690831515021790555080600160008573ffffffffffffffffffffffffffffffffffffffff1673ffffffffffffffffffffffffffffffffffffffff16815260200190815260200160002060000160008473ffffffffffffffffffffffffffffffffffffffff1673ffffffffffffffffffffffffffffffffffffffff168152602001908152602001600020600101819055507fa3f06593e233da367ccee7ae5ef8d4cb0f2c49a4478de074527b6460884e1b1760405160405180910390a1505050565b60018060008473ffffffffffffffffffffffffffffffffffffffff1673ffffffffffffffffffffffffffffffffffffffff16815260200190815260200160002060000160008373ffffffffffffffffffffffffffffffffffffffff1673ffffffffffffffffffffffffffffffffffffffff16815260200190815260200160002060000160016101000a81548160ff0219169083151502179055505050565b600260009054906101000a900473ffffffffffffffffffffffffffffffffffffffff1681565b6000809054906101000a900473ffffffffffffffffffffffffffffffffffffffff1681565b60008290508073ffffffffffffffffffffffffffffffffffffffff1663fed9171785846040518363ffffffff1660e01b8152600401808373ffffffffffffffffffffffffffffffffffffffff1673ffffffffffffffffffffffffffffffffffffffff16815260200182815260200192505050600060405180830381600087803b1580156108a857600080fd5b505af11580156108bc573d6000803e3d6000fd5b5050505050505050565b6000803090508091505090565b6000600160008473ffffffffffffffffffffffffffffffffffffffff1673ffffffffffffffffffffffffffffffffffffffff16815260200190815260200160002060000160008373ffffffffffffffffffffffffffffffffffffffff1673ffffffffffffffffffffffffffffffffffffffff16815260200190815260200160002060000160016101000a81548160ff0219169083151502179055505050565b60011515600160003373ffffffffffffffffffffffffffffffffffffffff1673ffffffffffffffffffffffffffffffffffffffff16815260200190815260200160002060000160008373ffffffffffffffffffffffffffffffffffffffff1673ffffffffffffffffffffffffffffffffffffffff16815260200190815260200160002060000160009054906101000a900460ff16151514610a5e576040517f08c379a0000000000000000000000000000000000000000000000000000000008152600401808060200182810382526062815260200180610cc56062913960800191505060405180910390fd5b60011515600160003373ffffffffffffffffffffffffffffffffffffffff1673ffffffffffffffffffffffffffffffffffffffff16815260200190815260200160002060000160008373ffffffffffffffffffffffffffffffffffffffff1673ffffffffffffffffffffffffffffffffffffffff16815260200190815260200160002060000160019054906101000a900460ff16151514610b4a576040517f08c379a0000000000000000000000000000000000000000000000000000000008152600401808060200182810382526093815260200180610d276093913960a00191505060405180910390fd5b6000600160003373ffffffffffffffffffffffffffffffffffffffff1673ffffffffffffffffffffffffffffffffffffffff16815260200190815260200160002060000160008373ffffffffffffffffffffffffffffffffffffffff1673ffffffffffffffffffffffffffffffffffffffff168152602001908152602001600020600101549050610bdb33836108d3565b600260009054906101000a900473ffffffffffffffffffffffffffffffffffffffff1673ffffffffffffffffffffffffffffffffffffffff1663a9059cbb33836040518363ffffffff1660e01b8152600401808373ffffffffffffffffffffffffffffffffffffffff1673ffffffffffffffffffffffffffffffffffffffff16815260200182815260200192505050602060405180830381600087803b158015610c8457600080fd5b505af1158015610c98573d6000803e3d6000fd5b505050506040513d6020811015610cae57600080fd5b810190808051906020019092919050505050505056fe546865207375627363726962657220686173206e6f2061677265656d656e742077697468207468652063616c6c696e672070726f76696465722e2043686f6f736520612076616c6964207375627363726962657220746f2070756c6c2066726f6d2e54686520737562736372696265722063757272656e746c792068617320616e2061677265656d656e742077697468207468652063616c6c696e672070726f76696465722c2062757420746865206d6f6e65792063616e6e6f742062652077697468647261776e207965742e20436865636b20616761696e20746865207465726d73206f66207468652061677265656d656e742e5468697320737065636966696320737562736372696265722d70726f76696465722072656c6174696f6e7368697020697320616c7265616479206573747461626c69736865642ea2646970667358221220230ecc1418097535efdf36e6326cb56f20dddd32220fe848d28581ca058709e864736f6c63430006000033",
  "source": "pragma solidity >=0.6.0 <0.9.0;\r\n\r\nimport \"./DDToken.sol\";\r\nimport \"./Subscriber.sol\";\r\nimport \"./MediatorInterface.sol\";\r\n\r\ncontract Mediator is MediatorInterface {\r\n    /* GLOBAL VARIABLES */\r\n    struct subInfo {\r\n        bool exists;\r\n        bool readyToPull;\r\n        uint256 deposit;\r\n        /* ADD HOLD TIME LATER */\r\n    }\r\n    struct provInfo {\r\n        mapping(address => subInfo) subs;\r\n    }\r\n\r\n    address public owner;\r\n    mapping(address => provInfo) provs;\r\n    DDToken public tok;\r\n\r\n    event breakPoint();\r\n\r\n    /* CONSTRUCTOR, FALLBACK, MODIFIERS */\r\n    constructor() public {\r\n        owner = msg.sender;\r\n    }\r\n\r\n    receive() external payable {}\r\n\r\n    modifier onlyOwner() {\r\n        require(msg.sender == owner);\r\n        _;\r\n    }\r\n\r\n    /* GETTERS, SETTERS */\r\n    function getAddr() public view override returns (address) {\r\n        address addr = address(this);\r\n        return addr;\r\n    }\r\n\r\n    function setToken(address _tokAddress) public {\r\n        tok = DDToken(_tokAddress);\r\n    }\r\n\r\n    /* GENERAL FUNCTIONS */\r\n    /* function withdrawToProvider() public {\r\n        uint256 amount = getBalance();\r\n        msg.sender.call.value(amount)(\"\");\r\n    } */\r\n    function addSubsToProv(\r\n        address _prov,\r\n        address _sub,\r\n        uint256 _amount\r\n    ) public override {\r\n        require(\r\n            provs[_prov].subs[_sub].exists != true,\r\n            \"This specific subscriber-provider relationship is already esttablished.\"\r\n        );\r\n        provs[_prov].subs[_sub].exists = true;\r\n        provs[_prov].subs[_sub].readyToPull = false;\r\n        provs[_prov].subs[_sub].deposit = _amount;\r\n        emit breakPoint();\r\n    }\r\n\r\n    function enableCharging(address _prov, address _sub) public override {\r\n        provs[_prov].subs[_sub].readyToPull = true;\r\n    }\r\n\r\n    function disableCharging(address _prov, address _sub) public override {\r\n        provs[_prov].subs[_sub].readyToPull = false;\r\n    }\r\n\r\n    /* PULL PAYMENT FUNCTION CALLED BY THE PROVIDER. */\r\n    function providerPullFromMed(address payable _sub) public override {\r\n        require(\r\n            provs[msg.sender].subs[_sub].exists == true,\r\n            \"The subscriber has no agreement with the calling provider. Choose a valid subscriber to pull from.\"\r\n        );\r\n        require(\r\n            provs[msg.sender].subs[_sub].readyToPull == true,\r\n            \"The subscriber currently has an agreement with the calling provider, but the money cannot be withdrawn yet. Check again the terms of the agreement.\"\r\n        );\r\n\r\n        uint256 dep = provs[msg.sender].subs[_sub].deposit;\r\n        //provs[msg.sender].subs[_sub].deposit = 0;\r\n        disableCharging(msg.sender, _sub);\r\n\r\n        //tok.transfer(msg.sender, dep);\r\n        /* Subscriber auxSub = Subscriber(_sub);\r\n        auxSub.directDebit(msg.sender, dep); */\r\n        tok.transfer(msg.sender, dep);\r\n    }\r\n\r\n    function medPullFromSub(address _prov, address payable _sub, uint256 _amount) public override {\r\n        Subscriber auxSub = Subscriber(_sub);\r\n        auxSub.directDebit(_prov, _amount);\r\n    }\r\n}\r\n",
  "sourcePath": "D:\\Master_MIRI\\Work\\e2e\\contracts\\Mediator.sol",
  "compiler": {
    "name": "solc",
    "version": "0.6.0+commit.26b70077.Emscripten.clang"
  },
  "schemaVersion": "3.3.4",
  "updatedAt": "2021-03-15T12:06:16.590Z",
  "networkType": "ethereum",
  "devdoc": {
    "methods": {}
  },
  "userdoc": {
    "methods": {}
  }
}