{
  "contractName": "MediatorInterface",
  "abi": [
    {
      "inputs": [],
      "name": "getAddr",
      "outputs": [
        {
          "internalType": "address",
          "name": "",
          "type": "address"
        }
      ],
      "stateMutability": "view",
      "type": "function"
    },
    {
      "inputs": [
        {
          "internalType": "address",
          "name": "_prov",
          "type": "address"
        },
        {
          "internalType": "address",
          "name": "_sub",
          "type": "address"
        },
        {
          "internalType": "uint256",
          "name": "_amount",
          "type": "uint256"
        }
      ],
      "name": "addSubsToProv",
      "outputs": [],
      "stateMutability": "nonpayable",
      "type": "function"
    },
    {
      "inputs": [
        {
          "internalType": "address",
          "name": "_prov",
          "type": "address"
        },
        {
          "internalType": "address",
          "name": "_sub",
          "type": "address"
        }
      ],
      "name": "enableCharging",
      "outputs": [],
      "stateMutability": "nonpayable",
      "type": "function"
    },
    {
      "inputs": [
        {
          "internalType": "address",
          "name": "_prov",
          "type": "address"
        },
        {
          "internalType": "address",
          "name": "_sub",
          "type": "address"
        }
      ],
      "name": "disableCharging",
      "outputs": [],
      "stateMutability": "nonpayable",
      "type": "function"
    },
    {
      "inputs": [
        {
          "internalType": "address payable",
          "name": "_sub",
          "type": "address"
        }
      ],
      "name": "providerPullFromMed",
      "outputs": [],
      "stateMutability": "nonpayable",
      "type": "function"
    },
    {
      "inputs": [
        {
          "internalType": "address",
          "name": "_prov",
          "type": "address"
        },
        {
          "internalType": "address payable",
          "name": "_sub",
          "type": "address"
        },
        {
          "internalType": "uint256",
          "name": "amount",
          "type": "uint256"
        }
      ],
      "name": "medPullFromSub",
      "outputs": [],
      "stateMutability": "nonpayable",
      "type": "function"
    }
  ],
  "bytecode": "0x608060405234801561001057600080fd5b506102e9806100206000396000f3fe608060405234801561001057600080fd5b50600436106100625760003560e01c80631534f83714610067578063325e1afe146100d55780639245f37414610139578063a74c2bb6146101a7578063be92b2cf146101f1578063f859c6e914610255575b600080fd5b6100d36004803603606081101561007d57600080fd5b81019080803573ffffffffffffffffffffffffffffffffffffffff169060200190929190803573ffffffffffffffffffffffffffffffffffffffff16906020019092919080359060200190929190505050610299565b005b610137600480360360408110156100eb57600080fd5b81019080803573ffffffffffffffffffffffffffffffffffffffff169060200190929190803573ffffffffffffffffffffffffffffffffffffffff16906020019092919050505061029e565b005b6101a56004803603606081101561014f57600080fd5b81019080803573ffffffffffffffffffffffffffffffffffffffff169060200190929190803573ffffffffffffffffffffffffffffffffffffffff169060200190929190803590602001909291905050506102a2565b005b6101af6102a7565b604051808273ffffffffffffffffffffffffffffffffffffffff1673ffffffffffffffffffffffffffffffffffffffff16815260200191505060405180910390f35b6102536004803603604081101561020757600080fd5b81019080803573ffffffffffffffffffffffffffffffffffffffff169060200190929190803573ffffffffffffffffffffffffffffffffffffffff1690602001909291905050506102ac565b005b6102976004803603602081101561026b57600080fd5b81019080803573ffffffffffffffffffffffffffffffffffffffff1690602001909291905050506102b0565b005b505050565b5050565b505050565b600090565b5050565b5056fea2646970667358221220ade57720c8e1152462bb0980fb23955d334277232e9f3de9763b555dfe867cb664736f6c63430006000033",
  "source": "pragma solidity >=0.6.0 <0.9.0;\r\n\r\nimport \"./DDToken.sol\";\r\nimport \"./Subscriber.sol\";\r\n\r\ncontract MediatorInterface {\r\n    /* GETTERS, SETTERS */\r\n    function getAddr() public view virtual returns (address) {}\r\n\r\n    function addSubsToProv(\r\n        address _prov,\r\n        address _sub,\r\n        uint256 _amount\r\n    ) public virtual {}\r\n\r\n    function enableCharging(address _prov, address _sub) public virtual {}\r\n\r\n    function disableCharging(address _prov, address _sub) public virtual {}\r\n\r\n    function providerPullFromMed(address payable _sub) public virtual {}\r\n\r\n    function medPullFromSub(address _prov, address payable _sub, uint256 amount) public virtual {}\r\n}\r\n",
  "sourcePath": "D:\\Master_MIRI\\Work\\e2e\\contracts\\MediatorInterface.sol",
  "compiler": {
    "name": "solc",
    "version": "0.6.0+commit.26b70077.Emscripten.clang"
  },
  "schemaVersion": "3.3.4",
  "updatedAt": "2021-03-15T12:06:04.367Z",
  "devdoc": {
    "methods": {}
  },
  "userdoc": {
    "methods": {}
  }
}