{
  "contractName": "Mediator",
  "abi": [
    {
      "inputs": [],
      "stateMutability": "nonpayable",
      "type": "constructor"
    },
    {
      "inputs": [],
      "name": "owner",
      "outputs": [
        {
          "internalType": "address",
          "name": "",
          "type": "address"
        }
      ],
      "stateMutability": "view",
      "type": "function",
      "constant": true
    },
    {
      "inputs": [],
      "name": "tok",
      "outputs": [
        {
          "internalType": "contract DDToken",
          "name": "",
          "type": "address"
        }
      ],
      "stateMutability": "view",
      "type": "function",
      "constant": true
    },
    {
      "stateMutability": "payable",
      "type": "receive",
      "payable": true
    },
    {
      "inputs": [],
      "name": "getAddr",
      "outputs": [
        {
          "internalType": "address",
          "name": "",
          "type": "address"
        }
      ],
      "stateMutability": "view",
      "type": "function",
      "constant": true
    },
    {
      "inputs": [
        {
          "internalType": "address",
          "name": "_tokAddress",
          "type": "address"
        }
      ],
      "name": "setToken",
      "outputs": [],
      "stateMutability": "nonpayable",
      "type": "function"
    },
    {
      "inputs": [
        {
          "internalType": "address",
          "name": "_prov",
          "type": "address"
        },
        {
          "internalType": "address",
          "name": "_sub",
          "type": "address"
        },
        {
          "internalType": "uint256",
          "name": "_limit",
          "type": "uint256"
        }
      ],
      "name": "addSubsToProv",
      "outputs": [],
      "stateMutability": "nonpayable",
      "type": "function"
    },
    {
      "inputs": [
        {
          "internalType": "address",
          "name": "_prov",
          "type": "address"
        },
        {
          "internalType": "address",
          "name": "_sub",
          "type": "address"
        }
      ],
      "name": "enableCharging",
      "outputs": [],
      "stateMutability": "nonpayable",
      "type": "function"
    },
    {
      "inputs": [
        {
          "internalType": "address",
          "name": "_prov",
          "type": "address"
        },
        {
          "internalType": "address",
          "name": "_sub",
          "type": "address"
        }
      ],
      "name": "disableCharging",
      "outputs": [],
      "stateMutability": "nonpayable",
      "type": "function"
    },
    {
      "inputs": [
        {
          "internalType": "address payable",
          "name": "_sub",
          "type": "address"
        },
        {
          "internalType": "uint256",
          "name": "_amount",
          "type": "uint256"
        }
      ],
      "name": "providerPullFromMed",
      "outputs": [],
      "stateMutability": "nonpayable",
      "type": "function"
    },
    {
      "inputs": [
        {
          "internalType": "address",
          "name": "_prov",
          "type": "address"
        },
        {
          "internalType": "address payable",
          "name": "_sub",
          "type": "address"
        },
        {
          "internalType": "uint256",
          "name": "_amount",
          "type": "uint256"
        }
      ],
      "name": "medPullFromSub",
      "outputs": [],
      "stateMutability": "nonpayable",
      "type": "function"
    },
    {
      "inputs": [
        {
          "internalType": "address",
          "name": "_prov",
          "type": "address"
        }
      ],
      "name": "subPullFromMed",
      "outputs": [],
      "stateMutability": "nonpayable",
      "type": "function"
    }
  ],
  "bytecode": "0x608060405234801561001057600080fd5b50336000806101000a81548173ffffffffffffffffffffffffffffffffffffffff021916908373ffffffffffffffffffffffffffffffffffffffff160217905550611380806100606000396000f3fe6080604052600436106100955760003560e01c80636ac28142116100595780636ac28142146102865780638da5cb5b146102e15780639245f37414610338578063a74c2bb6146103b3578063be92b2cf1461040a5761009c565b8063144fa6d7146100a15780631534f837146100f2578063325e1afe1461016d5780633f120baf146101de5780634ab74a1e1461022f5761009c565b3661009c57005b600080fd5b3480156100ad57600080fd5b506100f0600480360360208110156100c457600080fd5b81019080803573ffffffffffffffffffffffffffffffffffffffff16906020019092919050505061047b565b005b3480156100fe57600080fd5b5061016b6004803603606081101561011557600080fd5b81019080803573ffffffffffffffffffffffffffffffffffffffff169060200190929190803573ffffffffffffffffffffffffffffffffffffffff169060200190929190803590602001909291905050506104bf565b005b34801561017957600080fd5b506101dc6004803603604081101561019057600080fd5b81019080803573ffffffffffffffffffffffffffffffffffffffff169060200190929190803573ffffffffffffffffffffffffffffffffffffffff16906020019092919050505061076d565b005b3480156101ea57600080fd5b5061022d6004803603602081101561020157600080fd5b81019080803573ffffffffffffffffffffffffffffffffffffffff16906020019092919050505061080b565b005b34801561023b57600080fd5b50610244610bdb565b604051808273ffffffffffffffffffffffffffffffffffffffff1673ffffffffffffffffffffffffffffffffffffffff16815260200191505060405180910390f35b34801561029257600080fd5b506102df600480360360408110156102a957600080fd5b81019080803573ffffffffffffffffffffffffffffffffffffffff16906020019092919080359060200190929190505050610c01565b005b3480156102ed57600080fd5b506102f6610f5c565b604051808273ffffffffffffffffffffffffffffffffffffffff1673ffffffffffffffffffffffffffffffffffffffff16815260200191505060405180910390f35b34801561034457600080fd5b506103b16004803603606081101561035b57600080fd5b81019080803573ffffffffffffffffffffffffffffffffffffffff169060200190929190803573ffffffffffffffffffffffffffffffffffffffff16906020019092919080359060200190929190505050610f81565b005b3480156103bf57600080fd5b506103c86110bb565b604051808273ffffffffffffffffffffffffffffffffffffffff1673ffffffffffffffffffffffffffffffffffffffff16815260200191505060405180910390f35b34801561041657600080fd5b506104796004803603604081101561042d57600080fd5b81019080803573ffffffffffffffffffffffffffffffffffffffff169060200190929190803573ffffffffffffffffffffffffffffffffffffffff1690602001909291905050506110c8565b005b80600260006101000a81548173ffffffffffffffffffffffffffffffffffffffff021916908373ffffffffffffffffffffffffffffffffffffffff16021790555050565b60011515600160008573ffffffffffffffffffffffffffffffffffffffff1673ffffffffffffffffffffffffffffffffffffffff16815260200190815260200160002060000160008473ffffffffffffffffffffffffffffffffffffffff1673ffffffffffffffffffffffffffffffffffffffff16815260200190815260200160002060000160009054906101000a900460ff16151514156105ac576040517f08c379a00000000000000000000000000000000000000000000000000000000081526004018080602001828103825260478152602001806112d46047913960600191505060405180910390fd5b60018060008573ffffffffffffffffffffffffffffffffffffffff1673ffffffffffffffffffffffffffffffffffffffff16815260200190815260200160002060000160008473ffffffffffffffffffffffffffffffffffffffff1673ffffffffffffffffffffffffffffffffffffffff16815260200190815260200160002060000160006101000a81548160ff0219169083151502179055506000600160008573ffffffffffffffffffffffffffffffffffffffff1673ffffffffffffffffffffffffffffffffffffffff16815260200190815260200160002060000160008473ffffffffffffffffffffffffffffffffffffffff1673ffffffffffffffffffffffffffffffffffffffff16815260200190815260200160002060000160016101000a81548160ff02191690831515021790555080600160008573ffffffffffffffffffffffffffffffffffffffff1673ffffffffffffffffffffffffffffffffffffffff16815260200190815260200160002060000160008473ffffffffffffffffffffffffffffffffffffffff1673ffffffffffffffffffffffffffffffffffffffff16815260200190815260200160002060010181905550505050565b60018060008473ffffffffffffffffffffffffffffffffffffffff1673ffffffffffffffffffffffffffffffffffffffff16815260200190815260200160002060000160008373ffffffffffffffffffffffffffffffffffffffff1673ffffffffffffffffffffffffffffffffffffffff16815260200190815260200160002060000160016101000a81548160ff0219169083151502179055505050565b60001515600160008373ffffffffffffffffffffffffffffffffffffffff1673ffffffffffffffffffffffffffffffffffffffff16815260200190815260200160002060000160003373ffffffffffffffffffffffffffffffffffffffff1673ffffffffffffffffffffffffffffffffffffffff16815260200190815260200160002060000160019054906101000a900460ff161515146108f7576040517f08c379a00000000000000000000000000000000000000000000000000000000081526004018080602001828103825260778152602001806111ca6077913960800191505060405180910390fd5b60011515600160008373ffffffffffffffffffffffffffffffffffffffff1673ffffffffffffffffffffffffffffffffffffffff16815260200190815260200160002060000160003373ffffffffffffffffffffffffffffffffffffffff1673ffffffffffffffffffffffffffffffffffffffff16815260200190815260200160002060000160009054906101000a900460ff161515146109e3576040517f08c379a000000000000000000000000000000000000000000000000000000000815260040180806020018281038252603081526020018061131b6030913960400191505060405180910390fd5b6000600160008373ffffffffffffffffffffffffffffffffffffffff1673ffffffffffffffffffffffffffffffffffffffff16815260200190815260200160002060000160003373ffffffffffffffffffffffffffffffffffffffff1673ffffffffffffffffffffffffffffffffffffffff1681526020019081526020016000206002015490506000600160008473ffffffffffffffffffffffffffffffffffffffff1673ffffffffffffffffffffffffffffffffffffffff16815260200190815260200160002060000160003373ffffffffffffffffffffffffffffffffffffffff1673ffffffffffffffffffffffffffffffffffffffff16815260200190815260200160002060020181905550600260009054906101000a900473ffffffffffffffffffffffffffffffffffffffff1673ffffffffffffffffffffffffffffffffffffffff1663a9059cbb33836040518363ffffffff1660e01b8152600401808373ffffffffffffffffffffffffffffffffffffffff1673ffffffffffffffffffffffffffffffffffffffff16815260200182815260200192505050602060405180830381600087803b158015610b9b57600080fd5b505af1158015610baf573d6000803e3d6000fd5b505050506040513d6020811015610bc557600080fd5b8101908080519060200190929190505050505050565b600260009054906101000a900473ffffffffffffffffffffffffffffffffffffffff1681565b60011515600160003373ffffffffffffffffffffffffffffffffffffffff1673ffffffffffffffffffffffffffffffffffffffff16815260200190815260200160002060000160008473ffffffffffffffffffffffffffffffffffffffff1673ffffffffffffffffffffffffffffffffffffffff16815260200190815260200160002060000160009054906101000a900460ff16151514610ced576040517f08c379a00000000000000000000000000000000000000000000000000000000081526004018080602001828103825260628152602001806111686062913960800191505060405180910390fd5b60011515600160003373ffffffffffffffffffffffffffffffffffffffff1673ffffffffffffffffffffffffffffffffffffffff16815260200190815260200160002060000160008473ffffffffffffffffffffffffffffffffffffffff1673ffffffffffffffffffffffffffffffffffffffff16815260200190815260200160002060000160019054906101000a900460ff16151514610dd9576040517f08c379a00000000000000000000000000000000000000000000000000000000081526004018080602001828103825260938152602001806112416093913960a00191505060405180910390fd5b80600160003373ffffffffffffffffffffffffffffffffffffffff1673ffffffffffffffffffffffffffffffffffffffff16815260200190815260200160002060000160008473ffffffffffffffffffffffffffffffffffffffff1673ffffffffffffffffffffffffffffffffffffffff16815260200190815260200160002060020160008282540392505081905550610e7333836110c8565b600260009054906101000a900473ffffffffffffffffffffffffffffffffffffffff1673ffffffffffffffffffffffffffffffffffffffff1663a9059cbb33836040518363ffffffff1660e01b8152600401808373ffffffffffffffffffffffffffffffffffffffff1673ffffffffffffffffffffffffffffffffffffffff16815260200182815260200192505050602060405180830381600087803b158015610f1c57600080fd5b505af1158015610f30573d6000803e3d6000fd5b505050506040513d6020811015610f4657600080fd5b8101908080519060200190929190505050505050565b6000809054906101000a900473ffffffffffffffffffffffffffffffffffffffff1681565b600082905081600160008673ffffffffffffffffffffffffffffffffffffffff1673ffffffffffffffffffffffffffffffffffffffff16815260200190815260200160002060000160008573ffffffffffffffffffffffffffffffffffffffff1673ffffffffffffffffffffffffffffffffffffffff168152602001908152602001600020600201600082825401925050819055508073ffffffffffffffffffffffffffffffffffffffff1663fed9171785846040518363ffffffff1660e01b8152600401808373ffffffffffffffffffffffffffffffffffffffff1673ffffffffffffffffffffffffffffffffffffffff16815260200182815260200192505050600060405180830381600087803b15801561109d57600080fd5b505af11580156110b1573d6000803e3d6000fd5b5050505050505050565b6000803090508091505090565b6000600160008473ffffffffffffffffffffffffffffffffffffffff1673ffffffffffffffffffffffffffffffffffffffff16815260200190815260200160002060000160008373ffffffffffffffffffffffffffffffffffffffff1673ffffffffffffffffffffffffffffffffffffffff16815260200190815260200160002060000160016101000a81548160ff021916908315150217905550505056fe546865207375627363726962657220686173206e6f2061677265656d656e742077697468207468652063616c6c696e672070726f76696465722e2043686f6f736520612076616c6964207375627363726962657220746f2070756c6c2066726f6d2e546865206465706f736974656420616d6f756e7420697320616c726561647920617661696c61626c6520666f72207468652050726f766964657220746f2077697468647261772e20537562736372696265722063616e27742067657420746f6b656e73206261636b20617420746869732073746167652e54686520737562736372696265722063757272656e746c792068617320616e2061677265656d656e742077697468207468652063616c6c696e672070726f76696465722c2062757420746865206d6f6e65792063616e6e6f742062652077697468647261776e207965742e20436865636b20616761696e20746865207465726d73206f66207468652061677265656d656e742e5468697320737065636966696320737562736372696265722d70726f76696465722072656c6174696f6e7368697020697320616c7265616479206573747461626c69736865642e54686520537562736372696265722d50726f76696465722061677265656d656e7420646f6573206e6f74206578697374a26469706673582212203f3525d5ec75b8ed217bba599e1e366b4ec0c22065e4511fd7c9b5a6cddb30c364736f6c63430006000033",
  "source": "pragma solidity >=0.6.0 <0.9.0;\r\n\r\nimport \"./DDToken.sol\";\r\nimport \"./Subscriber.sol\";\r\nimport \"./MediatorInterface.sol\";\r\n\r\ncontract Mediator is MediatorInterface {\r\n    /* GLOBAL VARIABLES */\r\n    struct subInfo {\r\n        bool exists;\r\n        bool readyToPull;\r\n        uint256 limit;\r\n        uint256 availableTokens;\r\n    }\r\n    struct provInfo {\r\n        mapping(address => subInfo) subs;\r\n    }\r\n\r\n    address public owner;\r\n    mapping(address => provInfo) provs;\r\n    DDToken public tok;\r\n\r\n    /* CONSTRUCTOR, FALLBACK, MODIFIERS */\r\n    constructor() public {\r\n        owner = msg.sender;\r\n    }\r\n\r\n    receive() external payable {}\r\n\r\n    modifier onlyOwner() {\r\n        require(msg.sender == owner);\r\n        _;\r\n    }\r\n\r\n    /* GETTERS, SETTERS */\r\n    function getAddr() public view override returns (address) {\r\n        address addr = address(this);\r\n        return addr;\r\n    }\r\n\r\n    function setToken(address _tokAddress) public {\r\n        tok = DDToken(_tokAddress);\r\n    }\r\n\r\n    /* GENERAL FUNCTIONS */\r\n    /* function withdrawToProvider() public {\r\n        uint256 amount = getBalance();\r\n        msg.sender.call.value(amount)(\"\");\r\n    } */\r\n    function addSubsToProv(\r\n        address _prov,\r\n        address _sub,\r\n        uint256 _limit\r\n    ) public override {\r\n        require(\r\n            provs[_prov].subs[_sub].exists != true,\r\n            \"This specific subscriber-provider relationship is already esttablished.\"\r\n        );\r\n        provs[_prov].subs[_sub].exists = true;\r\n        provs[_prov].subs[_sub].readyToPull = false;\r\n        provs[_prov].subs[_sub].limit = _limit;\r\n    }\r\n\r\n    function enableCharging(address _prov, address _sub) public override {\r\n        provs[_prov].subs[_sub].readyToPull = true;\r\n    }\r\n\r\n    function disableCharging(address _prov, address _sub) public override {\r\n        provs[_prov].subs[_sub].readyToPull = false;\r\n    }\r\n\r\n    /* PULL PAYMENT FUNCTION CALLED BY THE PROVIDER. */\r\n    function providerPullFromMed(address payable _sub, uint256 _amount)\r\n        public\r\n        override\r\n    {\r\n        require(\r\n            provs[msg.sender].subs[_sub].exists == true,\r\n            \"The subscriber has no agreement with the calling provider. Choose a valid subscriber to pull from.\"\r\n        );\r\n        require(\r\n            provs[msg.sender].subs[_sub].readyToPull == true,\r\n            \"The subscriber currently has an agreement with the calling provider, but the money cannot be withdrawn yet. Check again the terms of the agreement.\"\r\n        );\r\n\r\n        provs[msg.sender].subs[_sub].availableTokens -= _amount;\r\n\r\n        disableCharging(msg.sender, _sub);\r\n        tok.transfer(msg.sender, _amount);\r\n    }\r\n\r\n    function medPullFromSub(\r\n        address _prov,\r\n        address payable _sub,\r\n        uint256 _amount\r\n    ) public override {\r\n        Subscriber auxSub = Subscriber(_sub);\r\n\r\n        provs[_prov].subs[_sub].availableTokens += _amount;\r\n\r\n        auxSub.directDebit(_prov, _amount);\r\n    }\r\n\r\n    function subPullFromMed(address _prov)public override {\r\n        require(provs[_prov].subs[msg.sender].readyToPull == false, \"The deposited amount is already available for the Provider to withdraw. Subscriber can't get tokens back at this stage.\");\r\n        require(provs[_prov].subs[msg.sender].exists == true, \"The Subscriber-Provider agreement does not exist\");\r\n\r\n        uint temp = provs[_prov].subs[msg.sender].availableTokens;\r\n        provs[_prov].subs[msg.sender].availableTokens = 0;\r\n\r\n        tok.transfer(msg.sender, temp);\r\n    }\r\n}\r\n",
  "sourcePath": "D:/Master_MIRI/Work/e2e/contracts/Mediator.sol",
  "compiler": {
    "name": "solc",
    "version": "0.6.0+commit.26b70077.Emscripten.clang"
  },
  "schemaVersion": "3.3.4",
  "updatedAt": "2021-03-17T08:25:37.618Z",
  "networkType": "ethereum",
  "devdoc": {
    "methods": {}
  },
  "userdoc": {
    "methods": {}
  }
}