{
  "contractName": "Provider",
  "abi": [
    {
      "inputs": [],
      "stateMutability": "nonpayable",
      "type": "constructor"
    },
    {
      "inputs": [],
      "name": "owner",
      "outputs": [
        {
          "internalType": "address",
          "name": "",
          "type": "address"
        }
      ],
      "stateMutability": "view",
      "type": "function",
      "constant": true
    },
    {
      "inputs": [
        {
          "internalType": "address",
          "name": "",
          "type": "address"
        }
      ],
      "name": "subsInSys",
      "outputs": [
        {
          "internalType": "bool",
          "name": "exists",
          "type": "bool"
        },
        {
          "internalType": "address",
          "name": "mediator",
          "type": "address"
        }
      ],
      "stateMutability": "view",
      "type": "function",
      "constant": true
    },
    {
      "stateMutability": "payable",
      "type": "receive",
      "payable": true
    },
    {
      "inputs": [
        {
          "internalType": "address",
          "name": "_sub",
          "type": "address"
        },
        {
          "internalType": "address",
          "name": "_med",
          "type": "address"
        }
      ],
      "name": "addSub",
      "outputs": [],
      "stateMutability": "nonpayable",
      "type": "function"
    },
    {
      "inputs": [
        {
          "internalType": "address payable",
          "name": "_med",
          "type": "address"
        },
        {
          "internalType": "address payable",
          "name": "_sub",
          "type": "address"
        },
        {
          "internalType": "uint256",
          "name": "_amount",
          "type": "uint256"
        }
      ],
      "name": "testPulling",
      "outputs": [],
      "stateMutability": "nonpayable",
      "type": "function"
    }
  ],
  "bytecode": "0x608060405234801561001057600080fd5b5033600160006101000a81548173ffffffffffffffffffffffffffffffffffffffff021916908373ffffffffffffffffffffffffffffffffffffffff1602179055506104b7806100616000396000f3fe6080604052600436106100435760003560e01c80635d70b6fb1461004f5780638da5cb5b146100ca578063a4d3e28d14610121578063c7a3b4d8146101bd5761004a565b3661004a57005b600080fd5b34801561005b57600080fd5b506100c86004803603606081101561007257600080fd5b81019080803573ffffffffffffffffffffffffffffffffffffffff169060200190929190803573ffffffffffffffffffffffffffffffffffffffff1690602001909291908035906020019092919050505061022e565b005b3480156100d657600080fd5b506100df6102d2565b604051808273ffffffffffffffffffffffffffffffffffffffff1673ffffffffffffffffffffffffffffffffffffffff16815260200191505060405180910390f35b34801561012d57600080fd5b506101706004803603602081101561014457600080fd5b81019080803573ffffffffffffffffffffffffffffffffffffffff1690602001909291905050506102f8565b60405180831515151581526020018273ffffffffffffffffffffffffffffffffffffffff1673ffffffffffffffffffffffffffffffffffffffff1681526020019250505060405180910390f35b3480156101c957600080fd5b5061022c600480360360408110156101e057600080fd5b81019080803573ffffffffffffffffffffffffffffffffffffffff169060200190929190803573ffffffffffffffffffffffffffffffffffffffff169060200190929190505050610349565b005b8273ffffffffffffffffffffffffffffffffffffffff16636ac2814283836040518363ffffffff1660e01b8152600401808373ffffffffffffffffffffffffffffffffffffffff1673ffffffffffffffffffffffffffffffffffffffff16815260200182815260200192505050600060405180830381600087803b1580156102b557600080fd5b505af11580156102c9573d6000803e3d6000fd5b50505050505050565b600160009054906101000a900473ffffffffffffffffffffffffffffffffffffffff1681565b60006020528060005260406000206000915090508060000160009054906101000a900460ff16908060000160019054906101000a900473ffffffffffffffffffffffffffffffffffffffff16905082565b600160009054906101000a900473ffffffffffffffffffffffffffffffffffffffff1673ffffffffffffffffffffffffffffffffffffffff163373ffffffffffffffffffffffffffffffffffffffff16146103a357600080fd5b60016000808473ffffffffffffffffffffffffffffffffffffffff1673ffffffffffffffffffffffffffffffffffffffff16815260200190815260200160002060000160006101000a81548160ff021916908315150217905550806000808473ffffffffffffffffffffffffffffffffffffffff1673ffffffffffffffffffffffffffffffffffffffff16815260200190815260200160002060000160016101000a81548173ffffffffffffffffffffffffffffffffffffffff021916908373ffffffffffffffffffffffffffffffffffffffff160217905550505056fea26469706673582212205193542bdc96aa4f21ad7a038e5739784a75fe2f5005c4b25c5e897abb5b7dac64736f6c63430006000033",
  "source": "pragma solidity >=0.6.0 <0.9.0;\r\n\r\nimport \"./Mediator.sol\";\r\n\r\ncontract Provider {\r\n    /* GLOBAL VARIABLES */\r\n    struct subInfo {\r\n        bool exists;\r\n        address mediator;\r\n    }\r\n\r\n    mapping(address => subInfo) public subsInSys;\r\n    address public owner;\r\n\r\n    /* CONSTRUCTOR, FALLBACK, MODIFIERS */\r\n    constructor() public {\r\n        owner = msg.sender;\r\n    }\r\n\r\n    receive() external payable {}\r\n\r\n    modifier onlyOwner() {\r\n        require(msg.sender == owner);\r\n        _;\r\n    }\r\n\r\n    /* GETTERS, SETTERS */\r\n\r\n    /* GENERAL FUNCTIONS */\r\n    function addSub(address _sub, address _med) public  onlyOwner{\r\n        subsInSys[_sub].exists = true;\r\n        subsInSys[_sub].mediator = _med;\r\n    }\r\n\r\n    /* ADD: HOW MUCH DO I CHARGE? */\r\n    function testPulling(address payable _med, address payable _sub, uint _amount) public {\r\n        Mediator(_med).providerPullFromMed(_sub, _amount);\r\n    }\r\n}\r\n",
  "sourcePath": "D:/Master_MIRI/Work/e2e/contracts/Provider.sol",
  "compiler": {
    "name": "solc",
    "version": "0.6.0+commit.26b70077.Emscripten.clang"
  },
  "schemaVersion": "3.3.4",
  "updatedAt": "2021-03-19T14:17:48.653Z",
  "networkType": "ethereum",
  "devdoc": {
    "methods": {}
  },
  "userdoc": {
    "methods": {}
  }
}