{
  "contractName": "Subscriber",
  "abi": [
    {
      "inputs": [],
      "stateMutability": "nonpayable",
      "type": "constructor"
    },
    {
      "inputs": [
        {
          "internalType": "address",
          "name": "",
          "type": "address"
        }
      ],
      "name": "meds",
      "outputs": [
        {
          "internalType": "bool",
          "name": "used",
          "type": "bool"
        }
      ],
      "stateMutability": "view",
      "type": "function",
      "constant": true
    },
    {
      "inputs": [],
      "name": "tok",
      "outputs": [
        {
          "internalType": "contract DDToken",
          "name": "",
          "type": "address"
        }
      ],
      "stateMutability": "view",
      "type": "function",
      "constant": true
    },
    {
      "stateMutability": "payable",
      "type": "receive",
      "payable": true
    },
    {
      "inputs": [
        {
          "internalType": "address",
          "name": "_tokAddress",
          "type": "address"
        }
      ],
      "name": "setToken",
      "outputs": [],
      "stateMutability": "nonpayable",
      "type": "function"
    },
    {
      "inputs": [
        {
          "internalType": "address",
          "name": "_prov",
          "type": "address"
        },
        {
          "internalType": "address",
          "name": "_med",
          "type": "address"
        },
        {
          "internalType": "uint256",
          "name": "_limit",
          "type": "uint256"
        }
      ],
      "name": "subscribeToProv",
      "outputs": [],
      "stateMutability": "nonpayable",
      "type": "function"
    },
    {
      "inputs": [
        {
          "internalType": "address",
          "name": "_prov",
          "type": "address"
        },
        {
          "internalType": "uint256",
          "name": "_amount",
          "type": "uint256"
        }
      ],
      "name": "directDebit",
      "outputs": [],
      "stateMutability": "nonpayable",
      "type": "function"
    },
    {
      "inputs": [
        {
          "internalType": "address",
          "name": "_med",
          "type": "address"
        }
      ],
      "name": "test",
      "outputs": [
        {
          "internalType": "address",
          "name": "",
          "type": "address"
        }
      ],
      "stateMutability": "nonpayable",
      "type": "function"
    }
  ],
  "bytecode": "0x608060405234801561001057600080fd5b506109a2806100206000396000f3fe6080604052600436106100595760003560e01c8063144fa6d7146100655780634ab74a1e146100b6578063add775a41461010d578063bb29998e14610188578063c6bb12e814610219578063fed917171461028257610060565b3661006057005b600080fd5b34801561007157600080fd5b506100b46004803603602081101561008857600080fd5b81019080803573ffffffffffffffffffffffffffffffffffffffff1690602001909291905050506102dd565b005b3480156100c257600080fd5b506100cb610320565b604051808273ffffffffffffffffffffffffffffffffffffffff1673ffffffffffffffffffffffffffffffffffffffff16815260200191505060405180910390f35b34801561011957600080fd5b506101866004803603606081101561013057600080fd5b81019080803573ffffffffffffffffffffffffffffffffffffffff169060200190929190803573ffffffffffffffffffffffffffffffffffffffff16906020019092919080359060200190929190505050610345565b005b34801561019457600080fd5b506101d7600480360360208110156101ab57600080fd5b81019080803573ffffffffffffffffffffffffffffffffffffffff16906020019092919050505061059e565b604051808273ffffffffffffffffffffffffffffffffffffffff1673ffffffffffffffffffffffffffffffffffffffff16815260200191505060405180910390f35b34801561022557600080fd5b506102686004803603602081101561023c57600080fd5b81019080803573ffffffffffffffffffffffffffffffffffffffff169060200190929190505050610633565b604051808215151515815260200191505060405180910390f35b34801561028e57600080fd5b506102db600480360360408110156102a557600080fd5b81019080803573ffffffffffffffffffffffffffffffffffffffff1690602001909291908035906020019092919050505061065e565b005b806000806101000a81548173ffffffffffffffffffffffffffffffffffffffff021916908373ffffffffffffffffffffffffffffffffffffffff16021790555050565b6000809054906101000a900473ffffffffffffffffffffffffffffffffffffffff1681565b60018060008473ffffffffffffffffffffffffffffffffffffffff1673ffffffffffffffffffffffffffffffffffffffff16815260200190815260200160002060000160006101000a81548160ff02191690831515021790555060018060008473ffffffffffffffffffffffffffffffffffffffff1673ffffffffffffffffffffffffffffffffffffffff16815260200190815260200160002060010160008573ffffffffffffffffffffffffffffffffffffffff1673ffffffffffffffffffffffffffffffffffffffff16815260200190815260200160002060000160006101000a81548160ff02191690831515021790555080600160008473ffffffffffffffffffffffffffffffffffffffff1673ffffffffffffffffffffffffffffffffffffffff16815260200190815260200160002060010160008573ffffffffffffffffffffffffffffffffffffffff1673ffffffffffffffffffffffffffffffffffffffff1681526020019081526020016000206001018190555060008290508073ffffffffffffffffffffffffffffffffffffffff16631534f8378530856040518463ffffffff1660e01b8152600401808473ffffffffffffffffffffffffffffffffffffffff1673ffffffffffffffffffffffffffffffffffffffff1681526020018373ffffffffffffffffffffffffffffffffffffffff1673ffffffffffffffffffffffffffffffffffffffff1681526020018281526020019350505050600060405180830381600087803b15801561058057600080fd5b505af1158015610594573d6000803e3d6000fd5b5050505050505050565b60008082905060008173ffffffffffffffffffffffffffffffffffffffff1663a74c2bb66040518163ffffffff1660e01b815260040160206040518083038186803b1580156105ec57600080fd5b505afa158015610600573d6000803e3d6000fd5b505050506040513d602081101561061657600080fd5b810190808051906020019092919050505090508092505050919050565b60016020528060005260406000206000915090508060000160009054906101000a900460ff16905081565b60011515600160003373ffffffffffffffffffffffffffffffffffffffff1673ffffffffffffffffffffffffffffffffffffffff16815260200190815260200160002060000160009054906101000a900460ff161515148015610754575060011515600160003373ffffffffffffffffffffffffffffffffffffffff1673ffffffffffffffffffffffffffffffffffffffff16815260200190815260200160002060010160008473ffffffffffffffffffffffffffffffffffffffff1673ffffffffffffffffffffffffffffffffffffffff16815260200190815260200160002060000160009054906101000a900460ff161515145b80156107e2575080600160003373ffffffffffffffffffffffffffffffffffffffff1673ffffffffffffffffffffffffffffffffffffffff16815260200190815260200160002060010160008473ffffffffffffffffffffffffffffffffffffffff1673ffffffffffffffffffffffffffffffffffffffff1681526020019081526020016000206001015410155b610837576040517f08c379a000000000000000000000000000000000000000000000000000000000815260040180806020018281038252604d815260200180610920604d913960600191505060405180910390fd5b6000809054906101000a900473ffffffffffffffffffffffffffffffffffffffff1673ffffffffffffffffffffffffffffffffffffffff1663a9059cbb33836040518363ffffffff1660e01b8152600401808373ffffffffffffffffffffffffffffffffffffffff1673ffffffffffffffffffffffffffffffffffffffff16815260200182815260200192505050602060405180830381600087803b1580156108df57600080fd5b505af11580156108f3573d6000803e3d6000fd5b505050506040513d602081101561090957600080fd5b810190808051906020019092919050505050505056fe5468652063757272656e74207061796d656e742072656c6174696f6e73686970206973206e6f742065737461626c69736865642e20436865636b20616761696e207468652064657461696c732ea2646970667358221220d60162481d16a2e2049dc8ad1d2ecd88fa9fd243d5c5de07a4234b74d793fa4164736f6c63430006000033",
  "source": "pragma solidity >=0.6.0 <0.9.0;\r\n\r\nimport \"./DDToken.sol\";\r\nimport \"./MediatorInterface.sol\";\r\n\r\ncontract Subscriber {\r\n    struct provInfo {\r\n        bool used;\r\n        uint256 limit;\r\n    }\r\n    struct medInfo {\r\n        bool used;\r\n        mapping(address => provInfo) provs;\r\n    }\r\n\r\n    DDToken public tok;\r\n    mapping(address => medInfo) public meds;\r\n\r\n    constructor() public {}\r\n\r\n    receive() external payable {}\r\n\r\n    function setToken(address _tokAddress) public {\r\n        tok = DDToken(_tokAddress);\r\n    }\r\n\r\n    function subscribeToProv(\r\n        address _prov,\r\n        address _med,\r\n        uint256 _limit\r\n    ) public {\r\n        meds[_med].used = true;\r\n        meds[_med].provs[_prov].used = true;\r\n        meds[_med].provs[_prov].limit = _limit;\r\n\r\n        MediatorInterface auxMed = MediatorInterface(_med);\r\n        auxMed.addSubsToProv(_prov, address(this), _limit);\r\n    }\r\n\r\n    function directDebit(address _prov, uint256 _amount) public {\r\n        /* CALLED BY MEDIATOR TO CLAIM TOKENS FOR A SPECIFIC SUBSCRIPTION */\r\n        require(\r\n            meds[msg.sender].used == true &&\r\n                meds[msg.sender].provs[_prov].used == true &&\r\n                meds[msg.sender].provs[_prov].limit >= _amount,\r\n            \"The current payment relationship is not established. Check again the details.\"\r\n        );\r\n        tok.transfer(msg.sender, _amount);\r\n    }\r\n\r\n    function test(address _med) public returns (address) {\r\n        MediatorInterface m = MediatorInterface(_med);\r\n        address ret = m.getAddr();\r\n        return ret;\r\n    }\r\n}\r\n/* \r\nconst tok = await DDToken.deployed();\r\nconst sub = await Subscriber.deployed();\r\nconst med = await Mediator.deployed();\r\nconst prov = await Provider.deployed();\r\n */\r\n",
  "sourcePath": "D:\\Master_MIRI\\Work\\e2e\\contracts\\Subscriber.sol",
  "compiler": {
    "name": "solc",
    "version": "0.6.0+commit.26b70077.Emscripten.clang"
  },
  "schemaVersion": "3.3.4",
  "updatedAt": "2021-03-16T08:17:02.633Z",
  "networkType": "ethereum",
  "devdoc": {
    "methods": {}
  },
  "userdoc": {
    "methods": {}
  }
}