{
  "contractName": "Subscriber",
  "abi": [
    {
      "inputs": [],
      "stateMutability": "nonpayable",
      "type": "constructor"
    },
    {
      "anonymous": false,
      "inputs": [],
      "name": "breakPoint",
      "type": "event"
    },
    {
      "inputs": [
        {
          "internalType": "address",
          "name": "",
          "type": "address"
        }
      ],
      "name": "meds",
      "outputs": [
        {
          "internalType": "bool",
          "name": "used",
          "type": "bool"
        }
      ],
      "stateMutability": "view",
      "type": "function",
      "constant": true
    },
    {
      "inputs": [],
      "name": "tok",
      "outputs": [
        {
          "internalType": "contract DDToken",
          "name": "",
          "type": "address"
        }
      ],
      "stateMutability": "view",
      "type": "function",
      "constant": true
    },
    {
      "stateMutability": "payable",
      "type": "receive",
      "payable": true
    },
    {
      "inputs": [
        {
          "internalType": "address",
          "name": "_tokAddress",
          "type": "address"
        }
      ],
      "name": "setToken",
      "outputs": [],
      "stateMutability": "nonpayable",
      "type": "function"
    },
    {
      "inputs": [
        {
          "internalType": "address",
          "name": "_prov",
          "type": "address"
        },
        {
          "internalType": "address",
          "name": "_med",
          "type": "address"
        },
        {
          "internalType": "uint256",
          "name": "_amount",
          "type": "uint256"
        }
      ],
      "name": "subscribeToProv",
      "outputs": [],
      "stateMutability": "nonpayable",
      "type": "function"
    },
    {
      "inputs": [
        {
          "internalType": "address",
          "name": "_med",
          "type": "address"
        },
        {
          "internalType": "uint256",
          "name": "_amount",
          "type": "uint256"
        }
      ],
      "name": "pushToMed",
      "outputs": [],
      "stateMutability": "nonpayable",
      "type": "function"
    },
    {
      "inputs": [
        {
          "internalType": "address",
          "name": "_prov",
          "type": "address"
        },
        {
          "internalType": "uint256",
          "name": "_amount",
          "type": "uint256"
        }
      ],
      "name": "directDebit",
      "outputs": [],
      "stateMutability": "nonpayable",
      "type": "function"
    },
    {
      "inputs": [
        {
          "internalType": "address",
          "name": "_med",
          "type": "address"
        }
      ],
      "name": "test",
      "outputs": [
        {
          "internalType": "address",
          "name": "",
          "type": "address"
        }
      ],
      "stateMutability": "nonpayable",
      "type": "function"
    }
  ],
  "bytecode": "0x608060405234801561001057600080fd5b5061093d806100206000396000f3fe6080604052600436106100745760003560e01c8063add775a41161004e578063add775a414610183578063bb29998e146101fe578063c6bb12e81461028f578063fed91717146102f85761007b565b8063144fa6d7146100805780634ab74a1e146100d15780638f8136c6146101285761007b565b3661007b57005b600080fd5b34801561008c57600080fd5b506100cf600480360360208110156100a357600080fd5b81019080803573ffffffffffffffffffffffffffffffffffffffff169060200190929190505050610353565b005b3480156100dd57600080fd5b506100e6610396565b604051808273ffffffffffffffffffffffffffffffffffffffff1673ffffffffffffffffffffffffffffffffffffffff16815260200191505060405180910390f35b34801561013457600080fd5b506101816004803603604081101561014b57600080fd5b81019080803573ffffffffffffffffffffffffffffffffffffffff169060200190929190803590602001909291905050506103bb565b005b34801561018f57600080fd5b506101fc600480360360608110156101a657600080fd5b81019080803573ffffffffffffffffffffffffffffffffffffffff169060200190929190803573ffffffffffffffffffffffffffffffffffffffff169060200190929190803590602001909291905050506104a3565b005b34801561020a57600080fd5b5061024d6004803603602081101561022157600080fd5b81019080803573ffffffffffffffffffffffffffffffffffffffff1690602001909291905050506106a1565b604051808273ffffffffffffffffffffffffffffffffffffffff1673ffffffffffffffffffffffffffffffffffffffff16815260200191505060405180910390f35b34801561029b57600080fd5b506102de600480360360208110156102b257600080fd5b81019080803573ffffffffffffffffffffffffffffffffffffffff169060200190929190505050610736565b604051808215151515815260200191505060405180910390f35b34801561030457600080fd5b506103516004803603604081101561031b57600080fd5b81019080803573ffffffffffffffffffffffffffffffffffffffff16906020019092919080359060200190929190505050610761565b005b806000806101000a81548173ffffffffffffffffffffffffffffffffffffffff021916908373ffffffffffffffffffffffffffffffffffffffff16021790555050565b6000809054906101000a900473ffffffffffffffffffffffffffffffffffffffff1681565b6000809054906101000a900473ffffffffffffffffffffffffffffffffffffffff1673ffffffffffffffffffffffffffffffffffffffff1663a9059cbb83836040518363ffffffff1660e01b8152600401808373ffffffffffffffffffffffffffffffffffffffff1673ffffffffffffffffffffffffffffffffffffffff16815260200182815260200192505050602060405180830381600087803b15801561046357600080fd5b505af1158015610477573d6000803e3d6000fd5b505050506040513d602081101561048d57600080fd5b8101908080519060200190929190505050505050565b60018060008473ffffffffffffffffffffffffffffffffffffffff1673ffffffffffffffffffffffffffffffffffffffff16815260200190815260200160002060000160006101000a81548160ff02191690831515021790555060018060008473ffffffffffffffffffffffffffffffffffffffff1673ffffffffffffffffffffffffffffffffffffffff16815260200190815260200160002060010160008573ffffffffffffffffffffffffffffffffffffffff1673ffffffffffffffffffffffffffffffffffffffff16815260200190815260200160002060000160006101000a81548160ff0219169083151502179055507fa3f06593e233da367ccee7ae5ef8d4cb0f2c49a4478de074527b6460884e1b1760405160405180910390a160008290508073ffffffffffffffffffffffffffffffffffffffff16631534f8378530856040518463ffffffff1660e01b8152600401808473ffffffffffffffffffffffffffffffffffffffff1673ffffffffffffffffffffffffffffffffffffffff1681526020018373ffffffffffffffffffffffffffffffffffffffff1673ffffffffffffffffffffffffffffffffffffffff1681526020018281526020019350505050600060405180830381600087803b15801561068357600080fd5b505af1158015610697573d6000803e3d6000fd5b5050505050505050565b60008082905060008173ffffffffffffffffffffffffffffffffffffffff1663a74c2bb66040518163ffffffff1660e01b815260040160206040518083038186803b1580156106ef57600080fd5b505afa158015610703573d6000803e3d6000fd5b505050506040513d602081101561071957600080fd5b810190808051906020019092919050505090508092505050919050565b60016020528060005260406000206000915090508060000160009054906101000a900460ff16905081565b60011515600160003373ffffffffffffffffffffffffffffffffffffffff1673ffffffffffffffffffffffffffffffffffffffff16815260200190815260200160002060000160009054906101000a900460ff161515148015610857575060011515600160003373ffffffffffffffffffffffffffffffffffffffff1673ffffffffffffffffffffffffffffffffffffffff16815260200190815260200160002060010160008473ffffffffffffffffffffffffffffffffffffffff1673ffffffffffffffffffffffffffffffffffffffff16815260200190815260200160002060000160009054906101000a900460ff161515145b6108ac576040517f08c379a000000000000000000000000000000000000000000000000000000000815260040180806020018281038252604d8152602001806108bb604d913960600191505060405180910390fd5b6108b633826103bb565b505056fe5468652063757272656e74207061796d656e742072656c6174696f6e73686970206973206e6f742065737461626c69736865642e20436865636b20616761696e207468652064657461696c732ea2646970667358221220242cf7866d87e2304bc563ebbec0cd8b3c7946e958fee3de0640b7b93b8aeb7e64736f6c63430006000033",
  "source": "pragma solidity >=0.6.0 <0.9.0;\r\n\r\nimport \"./DDToken.sol\";\r\nimport \"./MediatorInterface.sol\";\r\n\r\ncontract Subscriber {\r\n    struct provInfo {\r\n        bool used;\r\n    }\r\n    struct medInfo {\r\n        bool used;\r\n        mapping(address => provInfo) provs;\r\n    }\r\n\r\n    DDToken public tok;\r\n    mapping(address => medInfo) public meds;\r\n\r\n    event breakPoint();\r\n\r\n    constructor() public {}\r\n\r\n    receive() external payable {}\r\n\r\n    function setToken(address _tokAddress) public {\r\n        tok = DDToken(_tokAddress);\r\n    }\r\n\r\n    function subscribeToProv(address _prov, address _med, uint _amount)\r\n        public\r\n    {\r\n        meds[_med].used = true;\r\n        meds[_med].provs[_prov].used = true;\r\n\r\n        emit breakPoint();\r\n\r\n        MediatorInterface auxMed = MediatorInterface(_med);\r\n        auxMed.addSubsToProv(_prov, address(this), _amount);\r\n    }\r\n\r\n    function pushToMed(address _med, uint _amount) public {\r\n        tok.transfer(_med, _amount);\r\n    }\r\n\r\n    function directDebit(address _prov, uint _amount) public {\r\n        /* CALLED BY MEDIATOR TO CLAIM TOKENS FOR A SPECIFIC SUBSCRIPTION */\r\n        require(\r\n            meds[msg.sender].used == true &&\r\n                meds[msg.sender].provs[_prov].used == true,\r\n            \"The current payment relationship is not established. Check again the details.\"\r\n        );\r\n        pushToMed(msg.sender, _amount);\r\n    }\r\n    function test(address _med) public returns(address){\r\n        MediatorInterface m = MediatorInterface(_med);\r\n        address ret = m.getAddr();\r\n        return ret;\r\n    }\r\n}\r\n/* \r\nconst tok = await DDToken.deployed();\r\nconst sub = await Subscriber.deployed();\r\nconst med = await Mediator.deployed();\r\nconst prov = await Provider.deployed();\r\n */",
  "sourcePath": "D:\\Master_MIRI\\Work\\e2e\\contracts\\Subscriber.sol",
  "compiler": {
    "name": "solc",
    "version": "0.6.0+commit.26b70077.Emscripten.clang"
  },
  "schemaVersion": "3.3.4",
  "updatedAt": "2021-03-15T12:06:16.579Z",
  "networkType": "ethereum",
  "devdoc": {
    "methods": {}
  },
  "userdoc": {
    "methods": {}
  }
}