{
  "contractName": "Subscriber",
  "abi": [
    {
      "inputs": [],
      "stateMutability": "nonpayable",
      "type": "constructor"
    },
    {
      "inputs": [
        {
          "internalType": "address",
          "name": "",
          "type": "address"
        }
      ],
      "name": "meds",
      "outputs": [
        {
          "internalType": "bool",
          "name": "used",
          "type": "bool"
        }
      ],
      "stateMutability": "view",
      "type": "function",
      "constant": true
    },
    {
      "inputs": [],
      "name": "tok",
      "outputs": [
        {
          "internalType": "contract DDToken",
          "name": "",
          "type": "address"
        }
      ],
      "stateMutability": "view",
      "type": "function",
      "constant": true
    },
    {
      "stateMutability": "payable",
      "type": "receive",
      "payable": true
    },
    {
      "inputs": [
        {
          "internalType": "address",
          "name": "_tokAddress",
          "type": "address"
        }
      ],
      "name": "setToken",
      "outputs": [],
      "stateMutability": "nonpayable",
      "type": "function"
    },
    {
      "inputs": [
        {
          "internalType": "address",
          "name": "_prov",
          "type": "address"
        },
        {
          "internalType": "address payable",
          "name": "_med",
          "type": "address"
        },
        {
          "internalType": "uint256",
          "name": "_limit",
          "type": "uint256"
        }
      ],
      "name": "subscribeToProv",
      "outputs": [],
      "stateMutability": "nonpayable",
      "type": "function"
    },
    {
      "inputs": [
        {
          "internalType": "address",
          "name": "_prov",
          "type": "address"
        },
        {
          "internalType": "uint256",
          "name": "_amount",
          "type": "uint256"
        }
      ],
      "name": "directDebit",
      "outputs": [],
      "stateMutability": "nonpayable",
      "type": "function"
    },
    {
      "inputs": [
        {
          "internalType": "address",
          "name": "_prov",
          "type": "address"
        },
        {
          "internalType": "address payable",
          "name": "_med",
          "type": "address"
        }
      ],
      "name": "recoverFunds",
      "outputs": [],
      "stateMutability": "nonpayable",
      "type": "function"
    },
    {
      "inputs": [
        {
          "internalType": "address payable",
          "name": "_med",
          "type": "address"
        }
      ],
      "name": "test",
      "outputs": [
        {
          "internalType": "address",
          "name": "",
          "type": "address"
        }
      ],
      "stateMutability": "view",
      "type": "function",
      "constant": true
    }
  ],
  "bytecode": "0x608060405234801561001057600080fd5b50610acf806100206000396000f3fe6080604052600436106100745760003560e01c8063add775a41161004e578063add775a414610199578063bb29998e14610214578063c6bb12e8146102a5578063fed917171461030e5761007b565b8063144fa6d71461008057806324ae6a27146100d15780634ab74a1e146101425761007b565b3661007b57005b600080fd5b34801561008c57600080fd5b506100cf600480360360208110156100a357600080fd5b81019080803573ffffffffffffffffffffffffffffffffffffffff169060200190929190505050610369565b005b3480156100dd57600080fd5b50610140600480360360408110156100f457600080fd5b81019080803573ffffffffffffffffffffffffffffffffffffffff169060200190929190803573ffffffffffffffffffffffffffffffffffffffff1690602001909291905050506103ac565b005b34801561014e57600080fd5b5061015761044d565b604051808273ffffffffffffffffffffffffffffffffffffffff1673ffffffffffffffffffffffffffffffffffffffff16815260200191505060405180910390f35b3480156101a557600080fd5b50610212600480360360608110156101bc57600080fd5b81019080803573ffffffffffffffffffffffffffffffffffffffff169060200190929190803573ffffffffffffffffffffffffffffffffffffffff16906020019092919080359060200190929190505050610472565b005b34801561022057600080fd5b506102636004803603602081101561023757600080fd5b81019080803573ffffffffffffffffffffffffffffffffffffffff1690602001909291905050506106cb565b604051808273ffffffffffffffffffffffffffffffffffffffff1673ffffffffffffffffffffffffffffffffffffffff16815260200191505060405180910390f35b3480156102b157600080fd5b506102f4600480360360208110156102c857600080fd5b81019080803573ffffffffffffffffffffffffffffffffffffffff169060200190929190505050610760565b604051808215151515815260200191505060405180910390f35b34801561031a57600080fd5b506103676004803603604081101561033157600080fd5b81019080803573ffffffffffffffffffffffffffffffffffffffff1690602001909291908035906020019092919050505061078b565b005b806000806101000a81548173ffffffffffffffffffffffffffffffffffffffff021916908373ffffffffffffffffffffffffffffffffffffffff16021790555050565b60008190508073ffffffffffffffffffffffffffffffffffffffff16633f120baf846040518263ffffffff1660e01b8152600401808273ffffffffffffffffffffffffffffffffffffffff1673ffffffffffffffffffffffffffffffffffffffff168152602001915050600060405180830381600087803b15801561043057600080fd5b505af1158015610444573d6000803e3d6000fd5b50505050505050565b6000809054906101000a900473ffffffffffffffffffffffffffffffffffffffff1681565b60018060008473ffffffffffffffffffffffffffffffffffffffff1673ffffffffffffffffffffffffffffffffffffffff16815260200190815260200160002060000160006101000a81548160ff02191690831515021790555060018060008473ffffffffffffffffffffffffffffffffffffffff1673ffffffffffffffffffffffffffffffffffffffff16815260200190815260200160002060010160008573ffffffffffffffffffffffffffffffffffffffff1673ffffffffffffffffffffffffffffffffffffffff16815260200190815260200160002060000160006101000a81548160ff02191690831515021790555080600160008473ffffffffffffffffffffffffffffffffffffffff1673ffffffffffffffffffffffffffffffffffffffff16815260200190815260200160002060010160008573ffffffffffffffffffffffffffffffffffffffff1673ffffffffffffffffffffffffffffffffffffffff1681526020019081526020016000206001018190555060008290508073ffffffffffffffffffffffffffffffffffffffff16631534f8378530856040518463ffffffff1660e01b8152600401808473ffffffffffffffffffffffffffffffffffffffff1673ffffffffffffffffffffffffffffffffffffffff1681526020018373ffffffffffffffffffffffffffffffffffffffff1673ffffffffffffffffffffffffffffffffffffffff1681526020018281526020019350505050600060405180830381600087803b1580156106ad57600080fd5b505af11580156106c1573d6000803e3d6000fd5b5050505050505050565b60008082905060008173ffffffffffffffffffffffffffffffffffffffff1663a74c2bb66040518163ffffffff1660e01b815260040160206040518083038186803b15801561071957600080fd5b505afa15801561072d573d6000803e3d6000fd5b505050506040513d602081101561074357600080fd5b810190808051906020019092919050505090508092505050919050565b60016020528060005260406000206000915090508060000160009054906101000a900460ff16905081565b60011515600160003373ffffffffffffffffffffffffffffffffffffffff1673ffffffffffffffffffffffffffffffffffffffff16815260200190815260200160002060000160009054906101000a900460ff161515148015610881575060011515600160003373ffffffffffffffffffffffffffffffffffffffff1673ffffffffffffffffffffffffffffffffffffffff16815260200190815260200160002060010160008473ffffffffffffffffffffffffffffffffffffffff1673ffffffffffffffffffffffffffffffffffffffff16815260200190815260200160002060000160009054906101000a900460ff161515145b801561090f575080600160003373ffffffffffffffffffffffffffffffffffffffff1673ffffffffffffffffffffffffffffffffffffffff16815260200190815260200160002060010160008473ffffffffffffffffffffffffffffffffffffffff1673ffffffffffffffffffffffffffffffffffffffff1681526020019081526020016000206001015410155b610964576040517f08c379a000000000000000000000000000000000000000000000000000000000815260040180806020018281038252604d815260200180610a4d604d913960600191505060405180910390fd5b6000809054906101000a900473ffffffffffffffffffffffffffffffffffffffff1673ffffffffffffffffffffffffffffffffffffffff1663a9059cbb33836040518363ffffffff1660e01b8152600401808373ffffffffffffffffffffffffffffffffffffffff1673ffffffffffffffffffffffffffffffffffffffff16815260200182815260200192505050602060405180830381600087803b158015610a0c57600080fd5b505af1158015610a20573d6000803e3d6000fd5b505050506040513d6020811015610a3657600080fd5b810190808051906020019092919050505050505056fe5468652063757272656e74207061796d656e742072656c6174696f6e73686970206973206e6f742065737461626c69736865642e20436865636b20616761696e207468652064657461696c732ea2646970667358221220f84b97983a7279a3dd64b27f7322261935094c326de573be0e3011a645a7967564736f6c63430006000033",
  "source": "pragma solidity >=0.6.0 <0.9.0;\r\n\r\nimport \"./DDToken.sol\";\r\nimport \"./Mediator.sol\";\r\n\r\ncontract Subscriber {\r\n    struct provInfo {\r\n        bool used;\r\n        uint limit;\r\n    }\r\n    struct medInfo {\r\n        bool used;\r\n        mapping(address => provInfo) provs;\r\n    }\r\n\r\n    DDToken public tok;\r\n    mapping(address => medInfo) public meds;\r\n\r\n    constructor() public {}\r\n\r\n    receive() external payable {}\r\n\r\n    function setToken(address _tokAddress) public {\r\n        tok = DDToken(_tokAddress);\r\n    }\r\n\r\n    function subscribeToProv(\r\n        address _prov,\r\n        address payable _med,\r\n        uint _limit\r\n    ) public {\r\n        meds[_med].used = true;\r\n        meds[_med].provs[_prov].used = true;\r\n        meds[_med].provs[_prov].limit = _limit;\r\n\r\n        Mediator auxMed = Mediator(_med);\r\n        auxMed.addSubsToProv(_prov, address(this), _limit);\r\n    }\r\n\r\n    function directDebit(address _prov, uint _amount) public {\r\n        /* CALLED BY MEDIATOR TO CLAIM TOKENS FOR A SPECIFIC SUBSCRIPTION */\r\n        require(\r\n            meds[msg.sender].used == true &&\r\n                meds[msg.sender].provs[_prov].used == true &&\r\n                meds[msg.sender].provs[_prov].limit >= _amount,\r\n            \"The current payment relationship is not established. Check again the details.\"\r\n        );\r\n        tok.transfer(msg.sender, _amount);\r\n    }\r\n\r\n    function recoverFunds(address _prov, address payable _med) public {\r\n        Mediator m = Mediator(_med);\r\n        m.subPullFromMed(_prov);\r\n\r\n\r\n    }\r\n\r\n    function test(address payable _med) public view returns (address) {\r\n        Mediator m = Mediator(_med);\r\n        address ret = m.getAddr();\r\n        return ret;\r\n    }\r\n}\r\n/* \r\nconst tok = await DDToken.deployed();\r\nconst sub = await Subscriber.deployed();\r\nconst med = await Mediator.deployed();\r\nconst prov = await Provider.deployed();\r\n */\r\n",
  "sourcePath": "D:\\Master_MIRI\\Work\\e2e\\contracts\\Subscriber.sol",
  "compiler": {
    "name": "solc",
    "version": "0.6.0+commit.26b70077.Emscripten.clang"
  },
  "schemaVersion": "3.3.4",
  "updatedAt": "2021-03-17T09:07:07.559Z",
  "networkType": "ethereum",
  "devdoc": {
    "methods": {}
  },
  "userdoc": {
    "methods": {}
  }
}